{
  "contractName": "ship1",
  "abi": [
    {
      "constant": true,
      "inputs": [
        {
          "name": "",
          "type": "uint256"
        }
      ],
      "name": "uniqueId",
      "outputs": [
        {
          "name": "",
          "type": "uint256"
        }
      ],
      "payable": false,
      "stateMutability": "view",
      "type": "function"
    },
    {
      "constant": true,
      "inputs": [
        {
          "name": "",
          "type": "uint256"
        }
      ],
      "name": "pr",
      "outputs": [
        {
          "name": "trader",
          "type": "address"
        },
        {
          "name": "name",
          "type": "string"
        },
        {
          "name": "price",
          "type": "uint256"
        },
        {
          "name": "state",
          "type": "string"
        }
      ],
      "payable": false,
      "stateMutability": "view",
      "type": "function"
    },
    {
      "inputs": [],
      "payable": false,
      "stateMutability": "nonpayable",
      "type": "constructor"
    },
    {
      "anonymous": false,
      "inputs": [
        {
          "indexed": false,
          "name": "_from",
          "type": "address"
        },
        {
          "indexed": false,
          "name": "product",
          "type": "string"
        },
        {
          "indexed": false,
          "name": "state",
          "type": "string"
        }
      ],
      "name": "oredrPlaced",
      "type": "event"
    },
    {
      "constant": false,
      "inputs": [
        {
          "name": "ind",
          "type": "uint256"
        }
      ],
      "name": "placeOrder",
      "outputs": [],
      "payable": false,
      "stateMutability": "nonpayable",
      "type": "function"
    },
    {
      "constant": false,
      "inputs": [
        {
          "name": "names",
          "type": "string"
        },
        {
          "name": "prices",
          "type": "uint256"
        }
      ],
      "name": "addProduct",
      "outputs": [],
      "payable": false,
      "stateMutability": "nonpayable",
      "type": "function"
    },
    {
      "constant": true,
      "inputs": [],
      "name": "getPendingTransactions",
      "outputs": [
        {
          "name": "",
          "type": "uint256[]"
        }
      ],
      "payable": false,
      "stateMutability": "view",
      "type": "function"
    }
  ],
  "bytecode": "0x6060604052341561000f57600080fd5b336000806101000a81548173ffffffffffffffffffffffffffffffffffffffff021916908373ffffffffffffffffffffffffffffffffffffffff160217905550610cbb8061005e6000396000f30060606040526004361061006d576000357c0100000000000000000000000000000000000000000000000000000000900463ffffffff1680639c82f8be14610072578063b15247d9146100a9578063ba2255f41461010f578063d11db83f14610132578063e85d826d1461019c575b600080fd5b341561007d57600080fd5b6100936004808035906020019091905050610318565b6040518082815260200191505060405180910390f35b34156100b457600080fd5b61010d600480803590602001908201803590602001908080601f0160208091040260200160405190810160405280939291908181526020018383808284378201915050505050509190803590602001909190505061033c565b005b341561011a57600080fd5b61013060048080359060200190919050506104e0565b005b341561013d57600080fd5b6101456108f9565b6040518080602001828103825283818151815260200191508051906020019060200280838360005b8381101561018857808201518184015260208101905061016d565b505050509050019250505060405180910390f35b34156101a757600080fd5b6101bd6004808035906020019091905050610957565b604051808573ffffffffffffffffffffffffffffffffffffffff1673ffffffffffffffffffffffffffffffffffffffff16815260200180602001848152602001806020018381038352868181546001816001161561010002031660029004815260200191508054600181600116156101000203166002900480156102825780601f1061025757610100808354040283529160200191610282565b820191906000526020600020905b81548152906001019060200180831161026557829003601f168201915b50508381038252848181546001816001161561010002031660029004815260200191508054600181600116156101000203166002900480156103055780601f106102da57610100808354040283529160200191610305565b820191906000526020600020905b8154815290600101906020018083116102e857829003601f168201915b5050965050505050505060405180910390f35b60018181548110151561032757fe5b90600052602060002090016000915090505481565b6000809054906101000a900473ffffffffffffffffffffffffffffffffffffffff1673ffffffffffffffffffffffffffffffffffffffff163373ffffffffffffffffffffffffffffffffffffffff1614151561039757600080fd5b600380548060010182816103ab91906109b4565b916000526020600020906004020160006080604051908101604052806000809054906101000a900473ffffffffffffffffffffffffffffffffffffffff1673ffffffffffffffffffffffffffffffffffffffff1681526020018681526020018581526020016040805190810160405280600c81526020017f6f7264657220706c616365640000000000000000000000000000000000000000815250815250909190915060008201518160000160006101000a81548173ffffffffffffffffffffffffffffffffffffffff021916908373ffffffffffffffffffffffffffffffffffffffff16021790555060208201518160010190805190602001906104b19291906109e6565b506040820151816002015560608201518160030190805190602001906104d89291906109e6565b505050505050565b60008060009054906101000a900473ffffffffffffffffffffffffffffffffffffffff168160000160006101000a81548173ffffffffffffffffffffffffffffffffffffffff021916908373ffffffffffffffffffffffffffffffffffffffff16021790555060038281548110151561055557fe5b9060005260206000209060040201600101816001019080546001816001161561010002031660029004610589929190610a66565b5060038281548110151561059957fe5b90600052602060002090600402016002015481600201819055506003828154811015156105c257fe5b90600052602060002090600402016003018160030190805460018160011615610100020316600290046105f6929190610a66565b5080600260003373ffffffffffffffffffffffffffffffffffffffff1673ffffffffffffffffffffffffffffffffffffffff1681526020019081526020016000206000820160009054906101000a900473ffffffffffffffffffffffffffffffffffffffff168160000160006101000a81548173ffffffffffffffffffffffffffffffffffffffff021916908373ffffffffffffffffffffffffffffffffffffffff160217905550600182018160010190805460018160011615610100020316600290046106c5929190610aed565b5060028201548160020155600382018160030190805460018160011615610100020316600290046106f7929190610aed565b509050507f56d3166cc9642d4c2132afbf7b4002c2c339b1df63c92950942892853c659851338260010183600301604051808473ffffffffffffffffffffffffffffffffffffffff1673ffffffffffffffffffffffffffffffffffffffff16815260200180602001806020018381038352858181546001816001161561010002031660029004815260200191508054600181600116156101000203166002900480156107e45780601f106107b9576101008083540402835291602001916107e4565b820191906000526020600020905b8154815290600101906020018083116107c757829003601f168201915b50508381038252848181546001816001161561010002031660029004815260200191508054600181600116156101000203166002900480156108675780601f1061083c57610100808354040283529160200191610867565b820191906000526020600020905b81548152906001019060200180831161084a57829003601f168201915b50509550505050505060405180910390a16001805480600101828161088c9190610b74565b9160005260206000209001600033604051808273ffffffffffffffffffffffffffffffffffffffff1673ffffffffffffffffffffffffffffffffffffffff166c01000000000000000000000000028152601401915050604051809103902060019004909190915055505050565b610901610ba0565b600180548060200260200160405190810160405280929190818152602001828054801561094d57602002820191906000526020600020905b815481526020019060010190808311610939575b5050505050905090565b60038181548110151561096657fe5b90600052602060002090600402016000915090508060000160009054906101000a900473ffffffffffffffffffffffffffffffffffffffff1690806001019080600201549080600301905084565b8154818355818115116109e1576004028160040283600052602060002091820191016109e09190610bb4565b5b505050565b828054600181600116156101000203166002900490600052602060002090601f016020900481019282601f10610a2757805160ff1916838001178555610a55565b82800160010185558215610a55579182015b82811115610a54578251825591602001919060010190610a39565b5b509050610a629190610c22565b5090565b828054600181600116156101000203166002900490600052602060002090601f016020900481019282601f10610a9f5780548555610adc565b82800160010185558215610adc57600052602060002091601f016020900482015b82811115610adb578254825591600101919060010190610ac0565b5b509050610ae99190610c22565b5090565b828054600181600116156101000203166002900490600052602060002090601f016020900481019282601f10610b265780548555610b63565b82800160010185558215610b6357600052602060002091601f016020900482015b82811115610b62578254825591600101919060010190610b47565b5b509050610b709190610c22565b5090565b815481835581811511610b9b57818360005260206000209182019101610b9a9190610c22565b5b505050565b602060405190810160405280600081525090565b610c1f91905b80821115610c1b57600080820160006101000a81549073ffffffffffffffffffffffffffffffffffffffff0219169055600182016000610bfa9190610c47565b6002820160009055600382016000610c129190610c47565b50600401610bba565b5090565b90565b610c4491905b80821115610c40576000816000905550600101610c28565b5090565b90565b50805460018160011615610100020316600290046000825580601f10610c6d5750610c8c565b601f016020900490600052602060002090810190610c8b9190610c22565b5b505600a165627a7a723058206b29f039f9ca6034c85ce2892e266774bb749a6b6cf26a2674f2d84c09e178570029",
  "source": "pragma solidity ^0.4.17;\ncontract ship1{\n    address  trader;\n    struct products{\n        address trader;\n        string name;\n        uint price;\n        string state;\n    }\n    modifier onlyTrader{\n        require(msg.sender==trader);\n        _;\n    }\n    \n    uint[] public uniqueId;\n    //events\n    event oredrPlaced(address _from,string product,string state);\n    mapping(address=>products) orders;\n    modifier valid(address add){\n        products obj=orders[add];\n       require(obj.price!=0||add==trader);\n       _;\n    }\n    products[] public pr;\n    function ship1(){\n        trader=msg.sender;\n    }\n    function placeOrder(uint ind) public {\n    products obj;\n    obj.trader=trader;\n    obj.name=pr[ind].name;\n    obj.price=pr[ind].price;\n    obj.state=pr[ind].state;\n    orders[msg.sender]=obj;\n    oredrPlaced(msg.sender,obj.name,obj.state);\n    uniqueId.push(uint(keccak256(msg.sender)));\n    }\n    function addProduct(string names,uint prices) public onlyTrader {\n        pr.push(products(trader,names,prices,\"order placed\"));\n    }\n\n    function getPendingTransactions() view external returns(uint[]) {\n        return uniqueId;\n    }\n}",
  "sourcePath": "/Users/pulkit29/Documents/angular4-truffle-starter-dapp/contracts/ship1.sol",
  "compiler": {
    "name": "solc",
    "version": "0.4.19+commit.c4cbbb05.Emscripten.clang"
  },
  "schemaVersion": "2.0.0",
  "updatedAt": "2018-03-14T08:53:54.987Z"
}