{
  "contractName": "ship2",
  "abi": [
    {
      "constant": true,
      "inputs": [
        {
          "name": "",
          "type": "uint256"
        }
      ],
      "name": "uniqueId",
      "outputs": [
        {
          "name": "",
          "type": "uint256"
        }
      ],
      "payable": false,
      "stateMutability": "view",
      "type": "function"
    },
    {
      "constant": false,
      "inputs": [
        {
          "name": "names",
          "type": "string"
        },
        {
          "name": "prices",
          "type": "uint256"
        }
      ],
      "name": "addProduct",
      "outputs": [],
      "payable": false,
      "stateMutability": "nonpayable",
      "type": "function"
    },
    {
      "constant": false,
      "inputs": [
        {
          "name": "ind",
          "type": "uint256"
        }
      ],
      "name": "placeOrder",
      "outputs": [],
      "payable": false,
      "stateMutability": "nonpayable",
      "type": "function"
    },
    {
      "constant": true,
      "inputs": [],
      "name": "getPendingTransactions",
      "outputs": [
        {
          "name": "",
          "type": "uint256[]"
        }
      ],
      "payable": false,
      "stateMutability": "view",
      "type": "function"
    },
    {
      "constant": true,
      "inputs": [
        {
          "name": "",
          "type": "uint256"
        }
      ],
      "name": "pr",
      "outputs": [
        {
          "name": "trader",
          "type": "address"
        },
        {
          "name": "name",
          "type": "string"
        },
        {
          "name": "price",
          "type": "uint256"
        },
        {
          "name": "state",
          "type": "string"
        }
      ],
      "payable": false,
      "stateMutability": "view",
      "type": "function"
    },
    {
      "anonymous": false,
      "inputs": [
        {
          "indexed": false,
          "name": "state",
          "type": "string"
        },
        {
          "indexed": false,
          "name": "_by",
          "type": "address"
        }
      ],
      "name": "stateChange",
      "type": "event"
    },
    {
      "anonymous": false,
      "inputs": [
        {
          "indexed": false,
          "name": "_from",
          "type": "address"
        },
        {
          "indexed": false,
          "name": "product",
          "type": "string"
        },
        {
          "indexed": false,
          "name": "state",
          "type": "string"
        }
      ],
      "name": "oredrPlaced",
      "type": "event"
    },
    {
      "constant": false,
      "inputs": [
        {
          "name": "state",
          "type": "string"
        }
      ],
      "name": "changeState",
      "outputs": [],
      "payable": false,
      "stateMutability": "nonpayable",
      "type": "function"
    },
    {
      "constant": false,
      "inputs": [
        {
          "name": "sender",
          "type": "address"
        }
      ],
      "name": "payToSeller",
      "outputs": [],
      "payable": false,
      "stateMutability": "nonpayable",
      "type": "function"
    },
    {
      "constant": true,
      "inputs": [
        {
          "name": "_from",
          "type": "address"
        }
      ],
      "name": "getStateOfProduct",
      "outputs": [
        {
          "name": "",
          "type": "string"
        }
      ],
      "payable": false,
      "stateMutability": "view",
      "type": "function"
    }
  ],
  "bytecode": "0x6060604052336000806101000a81548173ffffffffffffffffffffffffffffffffffffffff021916908373ffffffffffffffffffffffffffffffffffffffff1602179055506112dc806100536000396000f30060606040526004361061008e576000357c0100000000000000000000000000000000000000000000000000000000900463ffffffff1680633b430faa146100935780639c82f8be146100f0578063a62dc34c14610127578063b15247d914610160578063ba2255f4146101c6578063d11db83f146101e9578063d1fb598414610253578063e85d826d14610305575b600080fd5b341561009e57600080fd5b6100ee600480803590602001908201803590602001908080601f01602080910402602001604051908101604052809392919081815260200183838082843782019150505050505091905050610481565b005b34156100fb57600080fd5b6101116004808035906020019091905050610662565b6040518082815260200191505060405180910390f35b341561013257600080fd5b61015e600480803573ffffffffffffffffffffffffffffffffffffffff16906020019091905050610686565b005b341561016b57600080fd5b6101c4600480803590602001908201803590602001908080601f016020809104026020016040519081016040528093929190818152602001838380828437820191505050505050919080359060200190919050506107d9565b005b34156101d157600080fd5b6101e7600480803590602001909190505061097d565b005b34156101f457600080fd5b6101fc610d96565b6040518080602001828103825283818151815260200191508051906020019060200280838360005b8381101561023f578082015181840152602081019050610224565b505050509050019250505060405180910390f35b341561025e57600080fd5b61028a600480803573ffffffffffffffffffffffffffffffffffffffff16906020019091905050610df4565b6040518080602001828103825283818151815260200191508051906020019080838360005b838110156102ca5780820151818401526020810190506102af565b50505050905090810190601f1680156102f75780820380516001836020036101000a031916815260200191505b509250505060405180910390f35b341561031057600080fd5b6103266004808035906020019091905050610ee4565b604051808573ffffffffffffffffffffffffffffffffffffffff1673ffffffffffffffffffffffffffffffffffffffff16815260200180602001848152602001806020018381038352868181546001816001161561010002031660029004815260200191508054600181600116156101000203166002900480156103eb5780601f106103c0576101008083540402835291602001916103eb565b820191906000526020600020905b8154815290600101906020018083116103ce57829003601f168201915b505083810382528481815460018160011615610100020316600290048152602001915080546001816001161561010002031660029004801561046e5780601f106104435761010080835404028352916020019161046e565b820191906000526020600020905b81548152906001019060200180831161045157829003601f168201915b5050965050505050505060405180910390f35b6000336000600260008373ffffffffffffffffffffffffffffffffffffffff1673ffffffffffffffffffffffffffffffffffffffff16815260200190815260200160002090506000816002015414158061052757506000809054906101000a900473ffffffffffffffffffffffffffffffffffffffff1673ffffffffffffffffffffffffffffffffffffffff168273ffffffffffffffffffffffffffffffffffffffff16145b151561053257600080fd5b600260003373ffffffffffffffffffffffffffffffffffffffff1673ffffffffffffffffffffffffffffffffffffffff16815260200190815260200160002092508383600301908051906020019061058b929190610f41565b507f4f186dc371be993ff97e7c851f17132acc40bc94f6a03be8894a0838b01f6e0e843360405180806020018373ffffffffffffffffffffffffffffffffffffffff1673ffffffffffffffffffffffffffffffffffffffff168152602001828103825284818151815260200191508051906020019080838360005b83811015610621578082015181840152602081019050610606565b50505050905090810190601f16801561064e5780820380516001836020036101000a031916815260200191505b50935050505060405180910390a150505050565b60018181548110151561067157fe5b90600052602060002090016000915090505481565b6000816000600260008373ffffffffffffffffffffffffffffffffffffffff1673ffffffffffffffffffffffffffffffffffffffff16815260200190815260200160002090506000816002015414158061072c57506000809054906101000a900473ffffffffffffffffffffffffffffffffffffffff1673ffffffffffffffffffffffffffffffffffffffff168273ffffffffffffffffffffffffffffffffffffffff16145b151561073757600080fd5b600260003373ffffffffffffffffffffffffffffffffffffffff1673ffffffffffffffffffffffffffffffffffffffff16815260200190815260200160002092506000809054906101000a900473ffffffffffffffffffffffffffffffffffffffff1673ffffffffffffffffffffffffffffffffffffffff166108fc84600201549081150290604051600060405180830381858888f193505050505050505050565b6000809054906101000a900473ffffffffffffffffffffffffffffffffffffffff1673ffffffffffffffffffffffffffffffffffffffff163373ffffffffffffffffffffffffffffffffffffffff1614151561083457600080fd5b600380548060010182816108489190610fc1565b916000526020600020906004020160006080604051908101604052806000809054906101000a900473ffffffffffffffffffffffffffffffffffffffff1673ffffffffffffffffffffffffffffffffffffffff1681526020018681526020018581526020016040805190810160405280600c81526020017f6f7264657220706c616365640000000000000000000000000000000000000000815250815250909190915060008201518160000160006101000a81548173ffffffffffffffffffffffffffffffffffffffff021916908373ffffffffffffffffffffffffffffffffffffffff160217905550602082015181600101908051906020019061094e929190610ff3565b50604082015181600201556060820151816003019080519060200190610975929190610ff3565b505050505050565b60008060009054906101000a900473ffffffffffffffffffffffffffffffffffffffff168160000160006101000a81548173ffffffffffffffffffffffffffffffffffffffff021916908373ffffffffffffffffffffffffffffffffffffffff1602179055506003828154811015156109f257fe5b9060005260206000209060040201600101816001019080546001816001161561010002031660029004610a26929190611073565b50600382815481101515610a3657fe5b9060005260206000209060040201600201548160020181905550600382815481101515610a5f57fe5b9060005260206000209060040201600301816003019080546001816001161561010002031660029004610a93929190611073565b5080600260003373ffffffffffffffffffffffffffffffffffffffff1673ffffffffffffffffffffffffffffffffffffffff1681526020019081526020016000206000820160009054906101000a900473ffffffffffffffffffffffffffffffffffffffff168160000160006101000a81548173ffffffffffffffffffffffffffffffffffffffff021916908373ffffffffffffffffffffffffffffffffffffffff16021790555060018201816001019080546001816001161561010002031660029004610b629291906110fa565b506002820154816002015560038201816003019080546001816001161561010002031660029004610b949291906110fa565b509050507f56d3166cc9642d4c2132afbf7b4002c2c339b1df63c92950942892853c659851338260010183600301604051808473ffffffffffffffffffffffffffffffffffffffff1673ffffffffffffffffffffffffffffffffffffffff1681526020018060200180602001838103835285818154600181600116156101000203166002900481526020019150805460018160011615610100020316600290048015610c815780601f10610c5657610100808354040283529160200191610c81565b820191906000526020600020905b815481529060010190602001808311610c6457829003601f168201915b5050838103825284818154600181600116156101000203166002900481526020019150805460018160011615610100020316600290048015610d045780601f10610cd957610100808354040283529160200191610d04565b820191906000526020600020905b815481529060010190602001808311610ce757829003601f168201915b50509550505050505060405180910390a160018054806001018281610d299190611181565b9160005260206000209001600033604051808273ffffffffffffffffffffffffffffffffffffffff1673ffffffffffffffffffffffffffffffffffffffff166c01000000000000000000000000028152601401915050604051809103902060019004909190915055505050565b610d9e6111ad565b6001805480602002602001604051908101604052809291908181526020018280548015610dea57602002820191906000526020600020905b815481526020019060010190808311610dd6575b5050505050905090565b610dfc6111c1565b6000600260008473ffffffffffffffffffffffffffffffffffffffff1673ffffffffffffffffffffffffffffffffffffffff1681526020019081526020016000209050806003018054600181600116156101000203166002900480601f016020809104026020016040519081016040528092919081815260200182805460018160011615610100020316600290048015610ed75780601f10610eac57610100808354040283529160200191610ed7565b820191906000526020600020905b815481529060010190602001808311610eba57829003601f168201915b5050505050915050919050565b600381815481101515610ef357fe5b90600052602060002090600402016000915090508060000160009054906101000a900473ffffffffffffffffffffffffffffffffffffffff1690806001019080600201549080600301905084565b828054600181600116156101000203166002900490600052602060002090601f016020900481019282601f10610f8257805160ff1916838001178555610fb0565b82800160010185558215610fb0579182015b82811115610faf578251825591602001919060010190610f94565b5b509050610fbd91906111d5565b5090565b815481835581811511610fee57600402816004028360005260206000209182019101610fed91906111fa565b5b505050565b828054600181600116156101000203166002900490600052602060002090601f016020900481019282601f1061103457805160ff1916838001178555611062565b82800160010185558215611062579182015b82811115611061578251825591602001919060010190611046565b5b50905061106f91906111d5565b5090565b828054600181600116156101000203166002900490600052602060002090601f016020900481019282601f106110ac57805485556110e9565b828001600101855582156110e957600052602060002091601f016020900482015b828111156110e85782548255916001019190600101906110cd565b5b5090506110f691906111d5565b5090565b828054600181600116156101000203166002900490600052602060002090601f016020900481019282601f106111335780548555611170565b8280016001018555821561117057600052602060002091601f016020900482015b8281111561116f578254825591600101919060010190611154565b5b50905061117d91906111d5565b5090565b8154818355818115116111a8578183600052602060002091820191016111a791906111d5565b5b505050565b602060405190810160405280600081525090565b602060405190810160405280600081525090565b6111f791905b808211156111f35760008160009055506001016111db565b5090565b90565b61126591905b8082111561126157600080820160006101000a81549073ffffffffffffffffffffffffffffffffffffffff02191690556001820160006112409190611268565b60028201600090556003820160006112589190611268565b50600401611200565b5090565b90565b50805460018160011615610100020316600290046000825580601f1061128e57506112ad565b601f0160209004906000526020600020908101906112ac91906111d5565b5b505600a165627a7a72305820e1758c07bc23bb47241d2b3fd52c3f4cb57897f2b56c18c4b2ec51d508ab670e0029",
  "source": "pragma solidity ^0.4.17;\nimport \"./ship1.sol\";\ncontract ship2 is ship1{\n    //to check wheteher product has been shipped or not\n    event stateChange(string state,address _by);\n    function changeState(string state) valid(msg.sender) {\n      products obj=orders[msg.sender];\n      obj.state=state;\n      stateChange(state,msg.sender);\n    }\n    function payToSeller(address sender) valid(sender) {\n        products obj=orders[msg.sender];\n        trader.send(obj.price);\n    }\n    function getStateOfProduct(address _from) view returns(string) {\n        products obj=orders[_from];\n        return obj.state;\n    }\n}",
  "sourcePath": "/Users/pulkit29/Documents/angular4-truffle-starter-dapp/contracts/ship2.sol",
  "compiler": {
    "name": "solc",
    "version": "0.4.19+commit.c4cbbb05.Emscripten.clang"
  },
  "schemaVersion": "2.0.0",
  "updatedAt": "2018-03-14T08:54:04.074Z"
}